:020000040800F2
:1040000000000220954100089141000891410008FC
:104010009141000891410008914100080000000012
:104020000000000000000000000000000153000834
:10403000914100080000000031530008955300082A
:104040009141000891410008914100089141000808
:104050009141000891410008694600088546000822
:10406000A1460008BD460008D94600089141000855
:1040700091410008914100089141000891410008D8
:10408000914100089141000891410008E94A000867
:10409000414C0008654C0008894C0008F5460008B2
:1040A00091410008914100089141000891410008A8
:1040B0009141000891410008914100089141000898
:1040C0009141000891410008914100089141000888
:1040D000914100087547000891410008914100088E
:1040E00035470008914100089141000891410008BE
:1040F0009141000891410008914100089141000858
:104100009141000891410008914100089141000847
:104110009141000891410008914100089141000837
:104120009141000891410008914100089141000827
:104130009141000891410008914100089141000817
:104140009141000891410008914100089141000807
:1041500091410008914100089141000891410008F7
:1041600091410008914100089141000891410008E7
:1041700091410008914100089141000891410008D7
:08418000914100089141000883
:10419000FEE70000224B234A23498B4238D3234BAE
:1041A000234A0021934238D32249D1F8883043F47E
:1041B0007003C1F88830204B1A68002042F00102D9
:1041C0001A6098609A6842F060529A601A6822F009
:1041D000867222F480321A60D8601A6C174842F056
:1041E00080521A64026842F4404202609A689A60FF
:1041F0009A6842F460429A609A6842F4E0529A6087
:1042000040F20272C3F800240D4B8B6001F006B936
:1042100052F8040B43F8040BBFE743F8041BC1E753
:1042200000000020CC540008000000200000002006
:104230000802002000ED00E000380240007000405D
:10424000004000082DE9F74F614A9368009023F081
:1042500003031446002800F09680012800F09C809B
:104260000024002940F3B0805A4E356847F230529E
:1042700025F00F0591FBF2F202F00F022A434FEAFC
:10428000410A3260AAF53B37CA00012501929046E7
:10429000A7F5007702264FF0FF3E2A464E48874298
:1042A00014D8B8FBF4F94FEA860C09FB04FBBBFBFE
:1042B000FCFCB1EB0C0B48BFACEB010BBEF1000FEB
:1042C00001DBF34502DADE4635464A4602360198FE
:1042D0000A2E57448044E1D16D1000983F4E54435C
:1042E000013D920142EA05420128B4FBF6F442F096
:1042F000040204F101040CBF4FF48000002042EAE4
:104300000462024332484260026842F080720260F6
:1043100002689201FCD54AF2104223F00303914255
:1043200043F0020350DD4C10944241DDB2EBA10F8B
:1043300040DAB2EBE10F3FDAB2EB211FB4BF022249
:10434000032242F00400264A91423EDD944235DDCC
:10435000B2EBA10F34DAB2EBE10F33DAB2EB211F8B
:10436000B4BF0222032242F0040223F47C4352032E
:1043700042EA802223F0F0031343154A936062B6A9
:1043800003B0BDE8F08F146844F00104146043F4F6
:1043900080334FF47A5464E7226842F4803222601A
:1043A00022689003FCD543F0010342F6E06458E72D
:1043B0000022C6E70122C4E70222C2E70022D2E7B8
:1043C0000122D0E70222CEE700200022CDE700BF85
:1043D00000380240003C024080A9030004EE0200C5
:1043E000204801003F4A936803F00C03042B10B5EA
:1043F0002CD0082B12D0002B3B4B18BF0023394A7E
:10440000926802F0F002B02A41D021D8902A3AD026
:10441000A02A3AD0802A20D15B081EE05368324996
:10442000546813F4800F314B08BF0B465168526833
:10443000C2F301420132C1F3881104F03F0452007B
:10444000B3FBF4F34B43B3FBF2F3D8E7274BD6E7C8
:10445000D02A20D011D8C02A1BD060B1012826D183
:10446000204A926802F4E052B2F5A05F34D016D828
:10447000B2F5805F2ED0184610BDE02A0DD0F02A8C
:10448000EBD15B0AE9E79B08E7E7DB08E5E71B09F7
:10449000E3E79B09E1E7DB09DFE71B0ADDE7B2F5AC
:1044A000C05F1BD0B2F5E05FE5D11B09E3E702284E
:1044B00016D10C4A926802F46042B2F5204F0BD03C
:1044C00002D8B2F5004FD5E7B2F5404F06D0B2F5AD
:1044D000604FE9E75B08CEE79B08CCE7DB08CAE75B
:1044E0000023C8E7003802400024F400001BB70096
:1044F0002DE9F0479046204A8E460126116B06FAB8
:1045000000F30B430A28136332D81C4B53F82030B6
:104510001D6899681A6A5F6A00244FF003094FF01A
:104520000F0C06FA04F010EA0E0F18D0600009FA1A
:1045300000FA25EA0A05B8F1000F02D006FA00F0E9
:104540000543072C4FEA8400CABF20380CFA00F05C
:104550000CFA00F041EA0A01D4BF824387430134D8
:10456000102CDED11D6099601A625F62BDE8F08791
:1045700000231B68FFDE00BF003802405C540008C7
:104580000A2805D8044B53F8203089B219837047A4
:1045900000231B83FFDE00BF5C5400080A2805D8F7
:1045A000044B53F8203089B25983704700235B8352
:1045B000FFDE00BF5C5400080A2806D8044B53F8FD
:1045C000202053694B405361704700235B69FFDE35
:1045D0005C5400080A282DE9F0473FD8214B53F8D6
:1045E0002050D5F820906E6A286800244FF0010C06
:1045F0004FF0030E4FF002080F270CFA04F30B42A2
:1046000009D063000EFA03FAB2F1FF3F20EA0A0074
:104610000AD14AEA00000134102CEED12860C5F816
:1046200020906E62BDE8F08708FA03F3072C40EA99
:1046300003004FEA840308DC07FA03FA29EA0A09AF
:1046400002FA03F343EA0909E5E7203B07FA03FA14
:1046500026EA0A0602FA03F31E43DCE700231B6A7C
:10466000FFDE00BF5C54000808B5044B1B6803B1B3
:104670009847034B01225A6108BD00BF000000208B
:10468000003C014008B5044B5B6803B19847034BFD
:1046900002225A6108BD00BF00000020003C01401A
:1046A00008B5044B9B6803B19847034B04225A6139
:1046B00008BD00BF00000020003C014008B5044BCD
:1046C000DB6803B19847034B08225A6108BD00BF5D
:1046D00000000020003C014008B5044B1B6903B1F9
:1046E0009847034B10225A6108BD00BF000000200C
:1046F000003C01402DE9F8430C4DDFF834900026D2
:1047000005244FF001082B6808FA04F73B4207D054
:104710006B691F4204D059F8243003B198473E43D7
:1047200001340A2C6E61EED1BDE8F883003C0140F3
:10473000000000202DE9F8430C4DDFF834900026EE
:104740000A244FF001082B6808FA04F73B4207D00F
:104750006B691F4204D059F8243003B198473E4397
:104760000134102C6E61EED1BDE8F883003C0140AD
:10477000000000201A4B198889B20A0610B511D51D
:10478000184A194854684068844222D05068174C2F
:10479000205C988050680130506050681F2801DD0F
:1047A0000020506011F0280F12D01A88104922F012
:1047B00028021204120C1A8098880E4B5A688854EA
:1047C0005A6801325A605A681F2AC4BF00225A60D0
:1047D00010BD9A8922F080021204120C9A81E1E73E
:1047E000001001400C01002078010020BC010020D5
:1047F0009C010020DC01002038B501282DED028B42
:10480000044608EE101A05D13D4B3E4A5A603E4B15
:104810003E4A5A603E4B002543F824503D4B43F836
:1048200024503D4B43F824503C4B43F82450631E26
:10483000072B5FD83A4A52F82350072B44D8DFE8B9
:1048400003F0043E4543434A4F54364A536C43F009
:10485000100353640220FFF7C5FD07EE900AB8EE7F
:10486000488AB8EE677AF3EE007A28EE278A012CA0
:10487000C7EE087A0CBF25220022F021FEEECE7A88
:1048800017EE903A9BB22B8100232B82AB8242F22F
:104890002C03AB8102F1604303F5614383F80013FD
:1048A000D30803F1604303F56143BDEC028B186844
:1048B00002F01F0101228A4002431A6038BD194AE2
:1048C000136C43F4003313640120C4E7154A136CDE
:1048D00043F48023F7E7134A536C43F02003B8E70F
:1048E000104A136C43F08043EDE70E4A136C43F01B
:1048F0000043E8E70120FFF775FD2D81FFDE00BFD3
:1049000054010020BC010020300100209C01002047
:104910000C01002078010020E8000020DC010020CC
:104920008854000800380240013808280BD8DFE816
:1049300000F0050B11161B20252A2F00174A536C77
:1049400043F0010353647047144A136C43F00103AE
:1049500013647047114A136C43F00203F8E70F4ADF
:10496000136C43F00403F3E70C4A136C43F00803A1
:10497000EEE70A4A136C43F01003E9E7074A136CA9
:1049800043F02003E4E7054A536C43F00203D9E700
:10499000024A536C43F48033D4E700BF003802402E
:1049A00008B5431E082B12D80B4A52F82310FFF704
:1049B000BBFF4FF0FF33CB6203230B8140F20113A7
:1049C0000B836FF000434B6201230B8008BDFFF7A0
:1049D000ABFF0023DB62FFDEA8540008CB0FB3EB74
:1049E000D07F10B521F0604220F060440CD0002848
:1049F000B8BFA40C0029B8BF920C944202D034BFB7
:104A000001230023184610BD944205D1C1F38073E1
:104A1000C0F380709842F5D194422CBF002301234B
:104A2000F0E7410746BFC30843F00043430D820748
:104A300048BF43F080431846704700010B7B00F1EC
:104A4000804000F5CB40DBB230B54360CD7A8B7A45
:104A50004A7A0C7A1B0443EA0563234343EA0223A0
:104A6000C360CD798B794A790C791B0443EA0563DD
:104A7000234343EA022383600A68002ABABFD300B3
:104A800043F004035305520048BF43F0020343F0D0
:104A90000103036030BD000010B5044686B0006815
:104AA000FFF7BFFF6368029003F00F03A2688DF861
:104AB00014300B48E3680068CDE9032302A9002302
:104AC00001AA019300F068FB019B3BB1054B4FF03D
:104AD00080521A60BFF34F8FBFF36F8F06B010BDC7
:104AE0000402002004ED00E0F0B5524E87B000242F
:104AF00001AA02A93068019400F0AFFB4E4B28B91F
:104B00005A6922F001025A6107B0F0BD9A6802F0BA
:104B1000E052B2F1E05F23D09A68C2F380628DF870
:104B200000209A689B68C2F3C062C3F300738DF8DB
:104B300001208DF80230404DAA68510137D58CB163
:104B400002A90020FFF779FF019B002BDCD03B4B33
:104B50004FF080521A60BFF34F8FBFF36F8FD3E7D0
:104B60000124E8E79DF80120029C42B9D5F89001A4
:104B7000FFF757FF01462046FFF730FF70B19DF861
:104B80000230002BDCD12C4BD3F8A001FFF749FFFA
:104B900001462046FFF722FF0028D1D100230193D0
:104BA00001AA012302A9306800F0F6FAACE7AA686E
:104BB000120119D514B102A90120C3E7029F012CEB
:104BC0000ED01DF804305BB904F118031B01E8583E
:104BD000FFF727FF01463846FFF700FF0028DDD02A
:104BE0000134032CEBD1E6E7AA68D300ACD514B1AD
:104BF00002A90220A6E79DF80020029C4AB9D5F838
:104C00008001FFF70EFF01462046FFF7E7FE002870
:104C1000C4D09DF80130002BEAD1074BD3F89001A6
:104C2000FFF7FFFE01462046FFF7D8FE0028DFD140
:104C3000B4E700BF000200200064004004ED00E083
:104C400010B5064C1823E360E3689B0704D00448C2
:104C5000FFF722FF2023E36010BD00BF0064004087
:104C6000B065004010B5064C1823236123699B07EB
:104C700004D00448FFF710FF2023236110BD00BFBC
:104C800000640040C06500407047704708B54E4959
:104C90000020FFF7D7FA012210464FF40071FFF70A
:104CA00027FC4FF400710120FFF778FC00224FF43D
:104CB00080710420FFF71CFC012210464FF4807124
:104CC000FFF716FC012211460020FFF711FC01221C
:104CD00002210020FFF70CFC012211460020FFF703
:104CE00079FC012202210020FFF774FC01224FF41D
:104CF00000410020FFF7FCFB012210460821FFF7CE
:104D0000F7FB02224FF400410020FFF763FC022270
:104D100008210120FFF75EFC0220FFF741FE05207D
:104D2000FFF73EFE01224FF400710020FFF7E0FB89
:104D3000002210464FF48061FFF7DAFB07224FF4A0
:104D400000710020FFF746FC07224FF4806100202D
:104D5000FFF740FC4FF4E1310120FFF74DFD002249
:104D600001210220FFF7C4FB012204210320FFF7E9
:104D7000BFFB00224FF400610220FFF7B9FB0122C4
:104D80004FF4A0510220FFF7B3FB04210320FFF7EB
:104D9000F7FB012202210320FFF7AAFB00220121D9
:104DA0000320FFF7A5FB092201210320FFF712FCD6
:104DB000092202210320FFF70DFC0022C02101205F
:104DC000BDE80840FFF794BB40900200C30704D53C
:104DD0004FF400710120FFF7EFBB7047064A1368DC
:104DE0001968064B19B94FF0FF321A607047126804
:104DF000D268D2685268F8E744000020BC00002066
:104E00002DE9F84F404B1B68002B73D13F4B1C68BA
:104E100001341C60BCB93E4B1A68126842B14FF0B5
:104E2000500383F31188BFF36F8FBFF34F8FFEE7FB
:104E3000384A1968106818601160374A13680133DE
:104E40001360FFF7CBFF354D354F2B68A3424FF072
:104E5000000B16D93A68334BD16A14224A439A5848
:104E6000022A314A126828BF4FF0010B0AB9FFF736
:104E70000CFF2E4A1268002A0CBF58460120BDE8DC
:104E8000F88FDFF88CA0DFF8A890DAF8002012681D
:104E90001AB94FF0FF322A60DCE7DAF80020D26856
:104EA000D66871688C4201D22960D3E706F1040804
:104EB000404600F017F9B16A19B106F1180000F088
:104EC00011F9F06AD9F80030012202FA00F1194311
:104ED000144BC9F800104FF0140C41460CFB003085
:104EE00000F0F4F83868F16AC26A914228BF4FF0C6
:104EF000010BCAE70C4A1368013313604FF0000B33
:104F0000FFF7C3FEB5E700BFB4000020D8000020C3
:104F10004400002048000020C0000020BC00002009
:104F2000400000204C000020B0000020DC000020E9
:104F3000B8000020174B1A68174B10B512B10122A8
:104F40001A6010BD1A60154B1B68B3FA83F3DBB20D
:104F5000C3F11F03142212495A4388188C5844B9CC
:104F60004FF0500383F31188BFF36F8FBFF34F8F60
:104F7000FEE744680832646844600A44944204BF0F
:104F800062684260142202FB03135B68DA68054B17
:104F9000D6E700BFB4000020DC000020B8000020ED
:104FA0004C0000204000002038B5C368DC6844B9DC
:104FB0004FF0500383F31188BFF36F8FBFF34F8F10
:104FC000FEE704F11805284600F08CF8114B1B6829
:104FD000E3B9251D284600F085F80F49E26A086804
:104FE0000123934003430B600C4B1420294600FB24
:104FF000023000F06BF80A4BE26A1B68DB6A9A42E7
:1050000083BF084B01201860002038BD29460648A0
:10501000EFE700BFB4000020B80000204C000020E3
:1050200040000020DC000020C4000020F8B5044649
:1050300008B90020F8BD224B1B68834208D04FF00E
:10504000500383F31188BFF36F8FBFF34F8FFEE7D9
:105050009B6C43B94FF0500383F31188BFF36F8FFC
:10506000BFF34F8FFEE7C16A426C013B91428364FC
:10507000DFD0002BDDD1051D284600F033F8114E9E
:10508000114A50B9E76A1421794373582BB9136850
:105090000120B84023EA00031360636CE362C3F1AC
:1050A0000501A1611168012404FA03F008431060AE
:1050B000142000FB0360294600F008F82046B9E7F9
:1050C000400000204C000020B800002043684B60E6
:1050D0009A688A609A685160996003680861013330
:1050E00003607047D0E9011203698A605160596812
:1050F000814208BF5A60002202611A68013A1A60B0
:1051000018687047F8B51546026C866B044652B9AC
:10511000076847BB8068FFF789FFA760054601362F
:10512000A6632846F8BD65B9406800F089F9636850
:10513000226C1344A26863609342F0D323686360D7
:10514000EDE7C06800F07CF9236CE26821685B42FF
:105150001A448A42E2603EBFA2689B18E360022DB7
:1051600001D116B1013E0025D9E73546D7E7034600
:1051700010B41A6C084662B1D9689C681144A14207
:10518000D96024BF1968D960D9685DF8044B00F074
:1051900057B95DF8044B70472DE9F84389469046AE
:1051A0001F46044640B94FF0500383F31188BFF304
:1051B0006F8FBFF34F8FFEE751B9036C43B14FF0D0
:1051C000500383F31188BFF36F8FBFF34F8FFEE758
:1051D000022F0BD1E36B012B08D04FF0500383F368
:1051E0001188BFF36F8FBFF34F8FFEE700F0E8F831
:1051F000EFF311864FF0500383F31188BFF36F8FE5
:10520000BFF34F8FA26BE36B9A4201D3022F22D1DF
:1052100094F845503A466DB249462046FFF772FF72
:105220006B1C13D1636A0BB901200BE004F124005D
:10523000FFF7BAFE0028F7D0B8F1000FF4D0012034
:10524000C8F8000086F31188BDE8F88301356DB217
:1052500084F84550E8E70020F4E72DE9F843894653
:105260009046054640B94FF0500383F31188BFF3D1
:105270006F8FBFF34F8FFEE751B9036C43B14FF00F
:10528000500383F31188BFF36F8FBFF34F8FFEE797
:1052900000F096F8EFF311874FF0500383F3118875
:1052A000BFF36F8FBFF34F8FAC6B1CB395F84460A7
:1052B000494676B22846FFF75AFF013C731CAC639F
:1052C00013D12B690BB901200BE005F11000FFF79A
:1052D0006BFE0028F7D0B8F1000FF4D00120C8F819
:1052E000000087F31188BDE8F883013676B285F8AF
:1052F0004460E8E72046F4E70000000000000000FA
:10530000074B19680868B0E8F04F80F30988BFF3CD
:105310006F8F4FF0000080F311887047AFF300806B
:10532000400000200000000000000000000000001D
:10533000EFF30980BFF36F8F154B1A681EF0100F43
:1053400008BF20ED108A20E9F04F10602DE9090018
:105350004FF0500080F31188BFF34F8FBFF36F8F72
:10536000FFF7E8FD4FF0000080F3118809BC1968D1
:105370000868B0E8F04F1EF0100F08BFB0EC108ABC
:1053800080F30988BFF36F8F704700BFAFF30080D1
:105390004000002008B54FF0500383F31188BFF39D
:1053A0006F8FBFF34F8FFFF72BFD18B1034B4FF0FB
:1053B00080521A60002383F3118808BD04ED00E0D9
:1053C000EFF305830F2B0ED9104A9B5C104A12781D
:1053D0009A4208D94FF0500383F31188BFF36F8FBF
:1053E000BFF34F8FFEE70B4B0B4A1B68126803F4A9
:1053F000E063934208D94FF0500383F31188BFF361
:105400006F8FBFF34F8FFEE7704700BFF0E300E000
:10541000E00000200CED00E0E400002007B5FFF7FD
:1054200035FC064D00240194019BAB42FBDC0020BF
:10543000FFF7CCFC019B01330193F5E77F969800C1
:105440000A44914200F1FF3300D1704710B511F8C2
:0C545000014B03F8014F9142F9D110BD4F
:10545C00000002400004024000080240000C024020
:10546C00001002400014024000180240001C0240D0
:10547C00002002400024024000280240001001409D
:10548C000044004000480040004C004000500040E8
:10549C000014014000780040007C004000000140F6
:1054AC00000000400004004000080040000C0040D8
:1054BC000010004000140040000401400040014076
:04000005080041901E
:00000001FF
ÿÿÿÿÿÿÿÿÿÿÿÿÿÿÿÿÿÿÿÿÿÿÿÿÿÿÿÿÿÿÿÿÿÿÿÿÿÿÿÿÿÿÿÿÿÿÿÿÿÿÿÿÿÿÿÿÿÿÿÿÿÿÿÿÿÿÿÿÿÿÿÿÿÿÿÿÿÿÿÿÿÿÿÿÿÿÿÿÿÿÿÿÿÿÿÿÿÿÿÿÿÿÿÿÿÿÿÿÿÿÿÿÿÿÿÿÿÿÿÿÿÿÿÿÿÿÿÿÿÿÿÿÿÿÿÿÿÿÿÿÿÿÿÿÿÿÿÿÿÿÿÿÿÿÿÿÿÿÿÿÿÿÿÿÿÿÿÿÿÿÿÿÿÿÿÿÿÿÿÿÿÿÿÿÿÿÿÿÿÿÿÿÿÿÿÿÿÿÿÿÿÿÿÿÿÿÿÿÿÿÿÿÿÿÿÿÿÿÿÿÿÿÿÿÿÿÿÿÿÿÿÿÿÿÿÿÿÿÿÿÿÿÿÿÿÿÿÿÿÿÿÿÿÿÿÿÿÿÿÿÿÿÿÿÿÿÿÿÿÿÿÿÿÿÿÿÿÿÿÿÿÿÿÿÿÿÿÿÿÿÿÿÿÿÿÿÿÿÿÿÿÿÿÿÿÿÿÿÿÿÿÿÿÿÿÿÿÿÿÿÿÿÿÿÿÿÿÿÿÿÿÿÿÿÿÿÿÿÿÿÿÿÿÿÿÿÿÿÿÿÿÿÿÿÿÿÿÿÿÿÿÿÿÿÿÿÿÿÿÿÿÿÿÿÿÿÿÿÿÿÿÿÿÿÿÿÿÿÿÿÿÿÿÿÿÿÿÿÿÿÿÿÿÿÿÿÿÿÿÿÿÿÿÿÿÿÿÿÿÿÿÿÿÿÿÿÿÿÿÿÿÿÿÿÿÿÿÿÿÿÿÿÿÿÿÿÿÿÿÿÿÿÿÿÿÿÿÿÿÿÿÿÿÿÿÿÿÿÿÿÿÿÿÿÿÿÿÿÿÿÿÿÿÿÿÿÿÿÿÿÿÿÿÿÿÿÿÿÿÿÿÿÿÿÿÿÿÿÿÿÿÿÿÿÿÿÿÿÿÿÿÿÿÿÿÿÿÿÿÿÿÿÿÿÿÿÿÿÿÿÿÿÿÿÿÿÿÿÿÿÿÿÿÿÿÿÿÿÿÿÿÿÿÿÿÿÿÿÿÿÿÿÿÿÿÿÿÿÿÿÿÿÿÿÿÿÿÿÿÿÿÿÿÿÿÿÿÿÿÿÿÿÿÿÿÿÿÿÿÿÿÿÿÿÿÿÿÿÿÿÿÿÿÿÿÿÿÿÿÿÿÿÿÿÿÿÿÿÿÿÿÿÿÿÿÿÿÿÿÿÿÿÿÿÿÿÿÿÿÿÿÿÿÿÿÿÿÿÿÿÿÿÿÿÿÿÿÿÿÿÿÿÿÿÿÿÿÿÿÿÿÿÿÿÿÿÿÿÿÿÿÿÿÿÿÿÿÿÿÿÿÿÿÿÿÿÿÿÿÿÿÿÿÿÿÿÿÿÿÿÿÿÿÿÿÿÿÿÿÿÿÿÿÿÿÿÿÿÿÿÿÿÿÿÿÿÿÿÿÿÿÿÿÿÿÿÿÿÿÿÿÿÿÿÿÿÿÿÿÿÿÿÿÿÿÿÿÿÿÿÿÿÿÿÿÿÿÿÿÿÿÿÿÿÿÿÿÿÿÿÿÿÿÿÿÿÿÿÿÿÿÿÿÿÿÿÿÿÿÿÿÿÿÿÿÿÿÿÿÿÿÿÿÿÿÿÿÿÿÿÿÿÿÿÿÿÿÿÿÿÿÿÿÿÿÿÿÿÿÿÿÿÿÿÿÿÿÿÿÿÿÿÿÿÿÿÿÿÿÿÿÿÿÿÿÿÿÿÿÿÿÿÿÿÿÿÿÿÿÿÿÿÿÿÿÿÿÿÿÿÿÿÿÿÿÿÿÿÿÿÿÿÿÿÿÿÿÿÿÿÿÿÿÿÿÿÿÿÿÿÿÿÿÿÿÿÿÿÿÿÿÿÿÿÿÿÿÿÿÿÿÿÿÿÿÿÿÿÿÿÿÿÿÿÿÿÿÿ